:0300000002009B60
:0C009B00787FE4F6D8FD758107020003B1
:1000410043AF04D29C759850438E01538EFB75D7F4
:08005100E875D6FF438E102272
:10002600EF1FAA0670011E4A60107C137D88ED1D25
:0A003600AA0470011C4A60E880F47F
:01004000229D
:0E007D0000007F057E347DC3DDFEDEFCDFFA71
:01008B002252
:0500A700C2998F9922AF
:0F008C00759DFFE4F5BD75BCE07F02FE02002606
:10005900EF44E8F5BC00000000E5BC30E4FB53BC0C
:04006900EFAFBD2216
:10006D00AC071200A712007DAF041200590200A7C1
:10000300C2A612004112008C30A514D2A612007DA4
:10001300E4FF12006D12007D7F0112006D80E9C2C2
:03002300A680E5CF
:00000001FF
